S015000046696E616C2D50726F6A6563742E7372656321
S11300000C9434000C9451000C9451000C94510045
S11300100C9451000C9451000C9451000C94510018
S11300200C9451000C9451000C9451000C94510008
S11300300C9451000C9451000C9451000C945100F8
S11300400C9451000C9451000C94C9030C9451006D
S11300500C9451000C9451000C9451000C945100D8
S11300600C9451000C94510011241FBECFEFD8E022
S1130070DEBFCDBF11E0A0E0B1E0E8E7FBE002C0E5
S113008005900D92A032B107D9F721E0A0E2B1E0CA
S113009001C01D92A932B207E1F70E947B030C94C0
S11300A0BA050C94000087B1837C87B98BB1886052
S11300B08BB98BB18B7F8BB98BB180618BB985E0A8
S11300C08A95F1F7000086B1869586958295807FA2
S11300D09BB19F7E9BB995E09A95F1F700009BB187
S11300E090619BB995E09A95F1F700009BB19F7ED2
S11300F09BB995E09A95F1F700008823ECF28BB157
S1130100877F8BB98BB184608BB987B18C6387B9D6
S113011008958BB180618BB987EC90E00197F1F77A
S113012000C000008BB18F7E8BB90895CF93DF930D
S1130130C82FD62F0E945300D1110DC08BB18B7FD5
S11301408BB9C03811F0C13071F481E080930101A2
S11301508093000108C08BB184608BB98091010148
S11301608F5F809301018BB1877F8BB99C2F907F28
S113017028B1892F90E09595879595958795822B41
S113018088B90E94890088B1837C88B920E1C29F24
S1130190C001112428B19927959587959595879540
S11301A0822B88B90E94890088B1837C88B9DF9149
S11301B0CF910895CF93DF93C82FD62F0E94530079
S11301C08FEF8C0F8E3F08F0C1E0C0930101D093F4
S11301D00001D23041F028F0D43049F030F0DF3F54
S11301E039F4C15005C0C15C03C0C15F01C0C15B2B
S11301F060E08C2F80680E949600DF91CF91089573
S11302000F931F93CF93DF93EC0101E011E019C02A
S1130210113190F0013029F462E081E00E94DA00AB
S113022002E0023030F08881803229F4219611E016
S113023003C011E001C011E061E089910E949600C1
S11302401F5F88818111E4CFDF91CF911F910F91BE
S113025008958F929F92AF92BF92DF92EF92FF9296
S11302600F931F93CF93DF93CDB7DEB72A970FB6C3
S1130270F894DEBF0FBECDBF4B015C01142FFE010D
S113028031968AE0DF011D928A95E9F78114910481
S1130290A104B10411F000E001C001E0A501940142
S11302A009C00F5FCA01B9012AE030E040E050E024
S11302B00E947905211531054105510591F7101B5F
S11302C00AF410E0BB2064F4B094A0949094809459
S11302D0811C911CA11CB11C0F5FDD24D39401C0AF
S11302E0D12C100F22C01A30A8F4E12EF12CB1E069
S11302F0EB1AF108C501B4012AE030E040E050E017
S11303000E947905E1E0F0E0EC0FFD1FEE0DFF1D0A
S1130310605D6083C501B4012AE030E040E050E054
S11303200E94790549015A0111501111DCCFDD20D9
S113033011F08DE28983CE0101960E9400012A9674
S11303400FB6F894DEBF0FBECDBFDF91CF911F91E2
S11303500F91FF90EF90DF90BF90AF909F908F90A0
S11303600895CF93C82F2FEF81EE94E02150804061
S11303709040E1F700C0000087B18C6387B988B171
S1130380837C88B98AB184608AB98AB188608AB961
S11303908AB18C618AB98BB18F7E8BB98BB1877F1F
S11303A08BB98BB18B7F8BB988B18C6088B90E9473
S11303B0890088B1837C88B98FE39CE90197F1F7C0
S11303C000C0000088B18C6088B90E94890088B19F
S11303D0837C88B98FE99FE00197F1F700C00000A2
S11303E088B18C6088B90E94890088B1837C88B9FF
S11303F08FE99FE00197F1F700C0000088B18860A1
S113040088B90E94890088B1837C88B98FE99FE00C
S11304100197F1F700C0000088B1886088B90E9494
S1130420890088B1837C88B98FE99FE00197F1F74F
S113043000C0000088B1806288B90E94890088B138
S1130440837C88B98FE99FE00197F1F700C0000031
S113045088B1846088B90E94890088B1837C88B996
S11304608FE19EE40197F1F700C0000088B1886134
S113047088B90E94890088B1837C88B98FE99FE09C
S11304800197F1F700C0000088B1806388B98FE953
S11304909FE00197F1F700C0000088B1837C88B920
S11304A00E94890088B1886088B90E94890088B157
S11304B0837C88B98FE39CE90197F1F700C00000C1
S11304C060E08C2F8C600E94960060E081E00E94C6
S11304D0960060E080E80E949600CF9108952FEF87
S11304E087EA91E6215080409040E1F700C0000087
S11304F084B1816084B981E080932001089586E00D
S113050091E00E9400016091230170E080E090E09E
S113051042E00E94290161E08FED0E94960061E0B3
S113052083E40E949600089589E091E00E9400010E
S11305306091210170E080E090E042E00E94290196
S113054061E085E20E949600089580912001811166
S113055002C00E946F0284B1816084B985B18E7F2C
S113056085B92FEF89EF90E0215080409040E1F76A
S113057000C0000084B18E7F84B92AEA2A95F1F77D
S113058000C0189967C087E491E00197F1F700C0B3
S11305900000189B61C087E491E00197F1F700C067
S11305A0000018995BC070E036C08F5F893040F45A
S11305B025E32A95F1F7000001C080E0189BF5CFF0
S11305C0189B4EC085ED8A95F1F70000189B0CC06E
S11305D047E050E0491B510921E030E002C0220FFE
S11305E0331F4A95E2F7622B80E007C08F5F8930A2
S11305F030F425E32A95F1F700001899F7CF9F5FAF
S113060002C060E090E09830C0F2E72FF0E0EF5DC8
S1130610FE4F60837F5F7530A0F38FEE90E001970B
S1130620F1F700C00000E1E2F1E030818181228134
S11306309381830F820F890F9481891313C09FEFD5
S113064023ED80E3915020408040E1F700C000009A
S113065081E0089580E0089580E0089580E00895A1
S113066080E008958FEF0895EAE7F0E080818760E5
S11306708083ACE7B0E08C9180648C938081806847
S113068080838081806480830895ECE7F0E090812A
S1130690907F90839081892B8083EAE7F0E08081CA
S11306A08064808380917A0086FDFCCF80917800FD
S11306B0909179009C01220F331F220F331F820F68
S11306C0931F08951092C50087E68093C400E1EC5F
S11306D0F0E088E18083208181E090E002C0880F0F
S11306E0991F2A95E2F786608093C2008081806812
S11306F080837894089580E00E94B1010E943403BD
S11307000E9462030E94A502809326018F3F49F450
S113071060E080E80E9496008CE091E00E94000175
S1130720F1CF60E080E80E9496000E947F0261E0C1
S113073088E00E94DA008BE191E00E94000180E0F1
S11307400E944503BC0180E090E00E947E0420E00A
S113075030ED4DE955E40E94DD0320E030E048EC43
S113076052E40E940C050E944F0470932801609388
S1130770270180E090E043E00E9429018EE191E0AE
S11307800E94000162E081E00E94DA000E9494026B
S1130790B9CF1F920F920FB60F9211248F93EF933C
S11307A0FF93E6ECF0E080818083FF91EF918F91DD
S11307B00F900FBE0F901F9018950E94F1030C9498
S11307C0D2040E94CB0458F00E94C40440F029F4DF
S11307D05F3F29F00C94BB0451110C9406050C9452
S11307E0C1040E94E30468F39923B1F3552391F300
S11307F0951B550BBB27AA2762177307840738F08C
S11308009F5F5F4F220F331F441FAA1FA9F335D0E8
S11308100E2E3AF0E0E832D091505040E695001C9C
S1130820CAF72BD0FE2F29D0660F771F881FBB1F56
S1130830261737074807AB07B0E809F0BB0B802D34
S1130840BF01FF2793585F4F3AF09E3F510578F060
S11308500C94BB040C9406055F3FE4F3983ED4F378
S1130860869577956795B795F7959F5FC9F7880F34
S1130870911D9695879597F90895E1E0660F771F86
S1130880881FBB1F621773078407BA0720F0621B17
S1130890730B840BBA0BEE1F88F7E09508950E9442
S11308A0EB0488F09F5798F0B92F9927B751B0F00F
S11308B0E1F0660F771F881F991F1AF0BA95C9F7E0
S11308C014C0B13091F00E940505B1E008950C9474
S11308D00505672F782F8827B85F39F0B93FCCF327
S11308E0869577956795B395D9F73EF4909580955D
S11308F0709561957F4F8F4F9F4F0895E89409C07D
S113090097FB3EF490958095709561957F4F8F4F3E
S11309109F4F9923A9F0F92F96E9BB279395F69554
S1130920879577956795B795F111F8CFFAF4BB0FD2
S113093011F460FF1BC06F5F7F4F8F4F9F4F16C036
S1130940882311F096E911C0772321F09EE8872FC0
S1130950762F05C0662371F096E8862F70E060E07C
S11309602AF09A95660F771F881FDAF7880F9695F5
S1130970879597F9089597F99F6780E870E060E09C
S113098008959FEF80EC089500240A941616170624
S113099018060906089500240A941216130614066C
S11309A005060895092E0394000C11F4882352F0CF
S11309B0BB0F40F4BF2B11F460FF04C06F5F7F4F87
S11309C08F4F9F4F089557FD9058440F551F59F06E
S11309D05F3F71F04795880F97FB991F61F09F3F28
S11309E079F087950895121613061406551FF2CF51
S11309F04695F1DF08C0161617061806991FF1CFA1
S1130A0086957105610508940895E894BB276627C7
S1130A107727CB0197F908950E941F050C94D204FF
S1130A200E94C40438F00E94CB0420F0952311F0F6
S1130A300C94BB040C94C10411240C9406050E946C
S1130A40E30470F3959FC1F3950F50E0551F629F27
S1130A50F001729FBB27F00DB11D639FAA27F00D13
S1130A60B11DAA1F649F6627B00DA11D661F829F3A
S1130A702227B00DA11D621F739FB00DA11D621F1F
S1130A80839FA00D611D221F749F3327A00D611D3C
S1130A90231F849F600D211D822F762F6A2F11241E
S1130AA09F5750409AF0F1F088234AF0EE0FFF1F51
S1130AB0BB1F661F771F881F91505040A9F79E3FA8
S1130AC0510580F00C94BB040C9406055F3FE4F3DD
S1130AD0983ED4F3869577956795B795F795E795FE
S1130AE09F5FC1F7FE2B880F911D9695879597F907
S1130AF00895052E97FB1EF400940E94900557FD5F
S1130B0007D00E94980507FC03D04EF40C9490057E
S1130B1050954095309521953F4F4F4F5F4F089525
S1130B2090958095709561957F4F8F4F9F4F089555
S1130B30A1E21A2EAA1BBB1BFD010DC0AA1FBB1FDD
S1130B40EE1FFF1FA217B307E407F50720F0A21B4F
S1130B50B30BE40BF50B661F771F881F991F1A94BC
S1130B6069F760957095809590959B01AC01BD01E6
S10B0B70CF010895F894FFCFB2
S1130B7801012D002E00543A00483A004368656389
S1130B886B73756D204572726F7200423A002500CE
S9030000FC
