S015000046696E616C2D50726F6A6563742E7372656321
S11300000C9434000C9451000C9451000C94510045
S11300100C9451000C9451000C9451000C94510018
S11300200C9451000C9451000C9451000C94510008
S11300300C9451000C9451000C9451000C945100F8
S11300400C9451000C9451000C94FF040C94510036
S11300500C9451000C9451000C9451000C945100D8
S11300600C9451000C94510011241FBECFEFD8E022
S1130070DEBFCDBF14E0A0E0B1E0E8E3F2E102C0EE
S113008005900D92AA3AB107D9F724E0AAEAB4E0A0
S113009001C01D92A43CB207E1F70E94B3030C9483
S11300A01A090C94000087B1837C87B98BB18860EE
S11300B08BB98BB18B7F8BB98BB180618BB985E0A8
S11300C0982F9A95F1F796B1969596959295907F7B
S11300D02BB12F7E2BB9282F2A95F1F72BB1206154
S11300E02BB9282F2A95F1F72BB12F7E2BB98A959E
S11300F0F1F799230CF38BB1877F8BB98BB18460B3
S11301008BB987B18C6387B908958BB180618BB942
S113011088EC90E00197F1F78BB18F7E8BB908954D
S1130120CF93DF93C82FD62F0E945300D1110DC057
S11301308BB18B7F8BB9C03811F0C13071F481E081
S1130140809309018093080108C08BB184608BB946
S1130150809109018F5F809309018BB1877F8BB9EF
S11301609C2F907F28B1892F90E095958795959540
S11301708795822B88B90E94850088B1837C88B9D1
S113018020E1C29FC001112428B199279595879534
S113019095958795822B88B90E94850088B1837CC8
S11301A088B9DF91CF910895CF93DF93C82FD62FCD
S11301B00E9453008FEF8C0F8E3F08F0C1E0C09374
S11301C00901D0930801D23041F028F0D43049F02D
S11301D030F0DF3F39F4C15005C0C15C03C0C15FDA
S11301E001C0C15B60E08C2F80680E949000DF91A9
S11301F0CF9108950F931F93CF93DF93EC0101E008
S113020011E019C0113190F0013029F462E081E06D
S11302100E94D40002E0023030F08881803229F458
S1130220219611E003C011E001C011E061E0899161
S11302300E9490001F5F88818111E4CFDF91CF91EC
S11302401F910F9108958F929F92AF92BF92DF9268
S1130250EF92FF920F931F93CF93DF93CDB7DEB747
S11302602A970FB6F894DEBF0FBECDBF4B015C01D9
S1130270142FFE0131968AE0DF011D928A95E9F779
S113028081149104A104B10411F000E001C001E063
S1130290A501940109C00F5FCA01B9012AE030E049
S11302A040E050E00E9470082115310541055105D8
S11302B091F7101B0AF410E0BB2064F4B094A094EE
S11302C090948094811C911CA11CB11C0F5FDD24AF
S11302D0D39401C0D12C100F22C01A30A8F4E12EFF
S11302E0F12CB1E0EB1AF108C501B4012AE030E0C9
S11302F040E050E00E947008E1E0F0E0EC0FFD1FE8
S1130300EE0DFF1D605D6083C501B4012AE030E09D
S113031040E050E00E94700849015A011150111147
S1130320DCCFDD2011F08DE28983CE0101960E949D
S1130330FA002A960FB6F894DEBF0FBECDBFDF9148
S1130340CF911F910F91FF90EF90DF90BF90AF90EE
S11303509F908F900895FF920F931F93CF93DF93F5
S1130360F82E88EE93E005C0E0E9F1E03197F1F76B
S113037001970097C9F787B18C6387B988B1837CEB
S113038088B98AB184608AB98AB188608AB98AB125
S11303908C618AB98BB18F7E8BB98BB1877F8BB916
S11303A08BB18B7F8BB988B18C6088B90E94850032
S11303B088B1837C88B900E41CE9C8010197F1F78E
S11303C088B18C6088B90E94850088B1837C88B923
S11303D0C0EADFE0CE010197F1F788B18C6088B9FB
S11303E00E94850088B1837C88B9CE010197F1F71A
S11303F088B1886088B90E94850088B1837C88B9F7
S1130400CE010197F1F788B1886088B90E94850010
S113041088B1837C88B9CE010197F1F788B18062F5
S113042088B90E94850088B1837C88B9CE01019780
S1130430F1F788B1846088B90E94850088B1837C13
S113044088B980E29EE40197F1F788B1886188B9A0
S11304500E94850088B1837C88B9CE010197F1F7A9
S113046088B1806388B92197F1F788B1837C88B912
S11304700E94850088B1886088B90E94850088B18F
S1130480837C88B9C8010197F1F760E08F2D8C60F7
S11304900E94900060E081E00E94900060E080E8AB
S11304A00E949000DF91CF911F910F91FF900895CA
S11304B080E29EE405C0E0E9F1E03197F1F70197AD
S11304C00097C9F784B1816084B981E08093AA045C
S11304D008958EE091E00E94FA006091AD0470E00E
S11304E080E090E00E944E0726E636E646EE5FE3A3
S11304F00E94030820E030E040E052E40E9433060A
S113050020E030E0A9010E9433060E94160742E071
S11305100E94230161E08FED0E94900061E086E477
S11305200E94900008958EE091E00E94FA0060918C
S1130530AD0470E080E090E042E00E94230161E0BD
S11305408FED0E94900061E083E40E949000089582
S1130550F999FECFF8946091AD0470E082E090E0E8
S11305600E94F7087894089581E191E00E94FA00CE
S11305706091AB0470E080E090E042E00E942301CF
S113058061E085E20E9490000895F999FECFF89405
S11305906091AB0470E083E090E00E94F7087894E7
S11305A008958091AA04811102C00E94580284B166
S11305B0816084B985B18E7F85B988EC90E005C0EF
S11305C0E0E9F1E03197F1F701970097C9F784B1B9
S11305D08E7F84B98AEA8A95F1F718995FC088E416
S11305E091E00197F1F7189B5BC088E491E00197D3
S11305F0F1F7189957C060E033C08F5F893038F441
S113060095E39A95F1F701C080E0189BF6CF189B0B
S11306104BC085ED8A95F1F7189B0CC047E050E07C
S1130620421B510981E090E002C0880F991F4A954E
S1130630E2F7382B80E006C08F5F893028F495E319
S11306409A95F1F71899F8CF2F5F02C030E020E0B7
S11306502830D0F2E62FF0E0E555FB4F30836F5F92
S11306606530A0F380EF90E00197F1F7EBEAF4E056
S11306703081218192818381230F920F890F94818C
S1130680891314C080E197E205C0E0E9F1E03197F5
S1130690F1F701970097C9F781E0089580E0089584
S11306A080E0089580E0089580E008958FEF089534
S11306B0EAE7F0E0808187608083ACE7B0E08C916A
S11306C080648C938081806880838081806480834F
S11306D00895ECE7F0E09081907F90839081892BDE
S11306E08083EAE7F0E080818064808380917A00EF
S11306F086FDFCCF80917800909179009C01220FB7
S1130700331F220F331F820F931F08951092C500C9
S113071087E68093C400E1ECF0E088E180832081E7
S113072081E090E002C0880F991F2A95E2F7866065
S11307308093C2008081806880837894089590912A
S1130740C00095FFFCCF8093C6000895CF93DF933C
S1130750EC0103C00E949F03219688818111FACF86
S1130760DF91CF91089581E090E09093B404809359
S1130770B3049093BD048093BC041092C3041092FC
S1130780C20480E00E94AB010E9458030E948603C9
S113079084E191E00E94A6038FE391E00E94A60306
S11307A088EA91E00E94A60385EE91E00E94A603E8
S11307B08CEF91E00E94A60382E192E00E94A603DE
S11307C089E292E00E94A60385E492E00E94A603D7
S11307D084E892E00E94A60380EC92E00E94A603C3
S11307E088EF92E00E94A60386E393E00E94A603AA
S11307F086E793E00E94A6038CEB93E00E94A60395
S113080082EF93E00E94A6032091BC043091BD04C2
S113081088EE93E0289FB001299F700D389F700DDA
S11308201124072E000C880B990B0E944E074B01D4
S11308305C0120E030E04AE755E40E9403086B01C4
S11308407C0120E030E040E85FE30E949F068823BB
S113085024F120E03FEF4FE757E4C701B6010E94BF
S1130860FE071816ACF420E030E040E251E4C50184
S1130870B4010E9403080E941D0706C080E991E0AC
S11308800197F1F76150710961157105B9F70AC053
S1130890C701B6010E941D0702C061E070E0CB01F0
S11308A00197F1F70E94D1028093B0048F3F49F47D
S11308B060E080E80E9490008EE294E00E94FA00DA
S11308C0A3CF8091B3049091B404019709F041C07F
S11308D060E080E80E9490008091C2049091C3047B
S11308E0019719F40E94690202C00E94930261E018
S11308F088E00E94D4008DE394E00E94FA0080E036
S11309000E946903BC0180E090E00E944C0720E053
S113091030E04AEF54E40E94A40620E030E048ECC2
S113092052E40E9403080E941D077093B60460936A
S1130930B50480E090E043E00E94230180E494E069
S11309400E94FA0062E081E00E94D4000E94B40296
S11309505BCF8091B1049091B204019781F460E07F
S113096080E80E9490008091C2049091C304019792
S113097019F40E94690248CF0E94930245CF8091E6
S1130980C0049091C104019761F560E080E80E9481
S113099090008DE394E00E94FA0080E00E946903D5
S11309A0BC0180E090E00E944C0720E030ED4DE96E
S11309B055E40E94A40620E030E048EC52E40E9492
S11309C003080E941D077093B6046093B50480E089
S11309D090E043E00E94230180E494E00E94FA0046
S11309E013CF8091BE049091BF04019709F00CCFFE
S11309F060E080E80E9490000E94B40205CF1F923C
S1130A000F920FB60F9211242F933F934F935F933E
S1130A106F937F938F939F93AF93BF93CF93EF93F2
S1130A20FF93C091C600C33551F4C091C6008C2F0A
S1130A3090E0C0979093BD048093BC04FDC0C4357E
S1130A40B9F460E081E00E94900081E090E090932E
S1130A50B2048093B1041092B4041092B3041092BF
S1130A60C1041092C0041092BF041092BE04E4C0EA
S1130A70C234B9F460E081E00E94900081E090E02B
S1130A809093C1048093C0041092B4041092B304F0
S1130A901092B2041092B1041092BF041092BE04DA
S1130AA0CBC0C834B9F460E081E00E94900081E0DA
S1130AB090E09093BF048093BE041092B40410920B
S1130AC0B3041092C1041092C0041092B2041092A4
S1130AD0B104B2C0C134B9F460E081E00E94900076
S1130AE081E090E09093B4048093B3041092B20434
S1130AF01092B1041092C1041092C0041092BF0469
S1130B001092BE0499C0C63439F481E090E0909309
S1130B10C3048093C20490C0C33429F41092C30464
S1130B201092C20489C0C73579F4F999FECFF894BC
S1130B306091B5047091B60480910601909107010B
S1130B400E94F708789478C0C43409F5F999FECF67
S1130B50F89480910601909107010E94F108909306
S1130B6001018093000178944AE050E067EB74E05F
S1130B7080910001909101010E94B10882E494E007
S1130B800E94A60387EB94E00E94A60355C0C135DA
S1130B9019F40E94A80250C0C73429F5F999FECF70
S1130BA0F89480910401909105010E94F1089093BA
S1130BB001018093000178944AE050E067EB74E00F
S1130BC080910001909101010E94B10881E694E0B6
S1130BD00E94A60387EB94E00E94A60381E894E0B8
S1130BE00E94A60329C0CA3419F40E94C50224C075
S1130BF0CB3411F5F89480910201909103010E9485
S1130C00F108909301018093000178944AE050E048
S1130C1067EB74E080910001909101010E94B1089A
S1130C2087E894E00E94A60387EB94E00E94A60361
S1130C3084EA94E00E94A603E6ECF0E0C08380819D
S1130C40FF91EF91CF91BF91AF919F918F917F9140
S1130C506F915F914F913F912F910F900FBE0F9025
S1130C601F9018955058BB27AA270E944A060C9437
S1130C70C4070E94B60738F00E94BD0720F039F47B
S1130C809F3F19F426F40C94B3070EF4E095E7FBA8
S1130C900C94AD07E92F0E94D50758F3BA176207E1
S1130CA073078407950720F079F4A6F50C94F707E9
S1130CB00EF4E0950B2EBA2FA02D0B01B901900173
S1130CC00C01CA01A0011124FF27591B99F0593FB7
S1130CD050F4503E68F11A16F040A22F232F342FFF
S1130CE04427585FF3CF469537952795A795F0404D
S1130CF05395C9F77EF41F16BA0B620B730B840B62
S1130D00BAF09150A1F0FF0FBB1F661F771F881F19
S1130D10C2F70EC0BA0F621F731F841F48F4879571
S1130D2077956795B795F7959E3F08F0B0CF939563
S1130D30880F08F09927EE0F9795879508950E94DC
S1130D40890708F481E008950E94B8060C94C4074A
S1130D500E94BD0758F00E94B60740F029F45F3F97
S1130D6029F00C94AD0751110C94F8070C94B307B7
S1130D700E94D50768F39923B1F3552391F3951B8A
S1130D80550BBB27AA2762177307840738F09F5FA8
S1130D905F4F220F331F441FAA1FA9F335D00E2E15
S1130DA03AF0E0E832D091505040E695001CCAF782
S1130DB02BD0FE2F29D0660F771F881FBB1F261745
S1130DC037074807AB07B0E809F0BB0B802DBF011C
S1130DD0FF2793585F4F3AF09E3F510578F00C94EB
S1130DE0AD070C94F8075F3FE4F3983ED4F386957F
S1130DF077956795B795F7959F5FC9F7880F911D0C
S1130E009695879597F90895E1E0660F771F881FF7
S1130E10BB1F621773078407BA0720F0621B730BAA
S1130E20840BBA0BEE1F88F7E09508950E941D0706
S1130E306894B1110C94F80708950E94DD0788F0B6
S1130E409F5798F0B92F9927B751B0F0E1F0660F8A
S1130E50771F881F991F1AF0BA95C9F714C0B130CB
S1130E6091F00E94F707B1E008950C94F707672FFB
S1130E70782F8827B85F39F0B93FCCF386957795FA
S1130E806795B395D9F73EF49095809570956195E3
S1130E907F4F8F4F9F4F0895E89409C097FB3EF40E
S1130EA090958095709561957F4F8F4F9F4F9923B3
S1130EB0A9F0F92F96E9BB279395F6958795779531
S1130EC06795B795F111F8CFFAF4BB0F11F460FFF1
S1130ED01BC06F5F7F4F8F4F9F4F16C0882311F049
S1130EE096E911C0772321F09EE8872F762F05C05D
S1130EF0662371F096E8862F70E060E02AF09A95F8
S1130F00660F771F881FDAF7880F9695879597F9EC
S1130F100895990F0008550FAA0BE0E8FEEF161686
S1130F201706E807F907C0F012161306E407F507D9
S1130F3098F0621B730B840B950B39F40A2661F04D
S1130F40232B242B252B21F408950A2609F4A140F0
S1130F50A6958FEF811D811D089597F99F6780E8FD
S1130F6070E060E008959FEF80EC089500240A94F7
S1130F701616170618060906089500240A94121670
S1130F801306140605060895092E0394000C11F4A3
S1130F90882352F0BB0F40F4BF2B11F460FF04C050
S1130FA06F5F7F4F8F4F9F4F089557FD9058440FA9
S1130FB0551F59F05F3F71F04795880F97FB991FB4
S1130FC061F09F3F79F08795089512161306140671
S1130FD0551FF2CF4695F1DF08C0161617061806FE
S1130FE0991FF1CF86957105610508940895E894D9
S1130FF0BB2766277727CB0197F908950E948907B5
S113100008F48FEF08950E9416080C94C4070E94F8
S1131010B60738F00E94BD0720F0952311F00C9418
S1131020AD070C94B30711240C94F8070E94D5075C
S113103070F3959FC1F3950F50E0551F629FF00127
S1131040729FBB27F00DB11D639FAA27F00DB11D40
S1131050AA1F649F6627B00DA11D661F829F2227C9
S1131060B00DA11D621F739FB00DA11D621F839F50
S1131070A00D611D221F749F3327A00D611D231F26
S1131080849F600D211D822F762F6A2F11249F5774
S113109050409AF0F1F088234AF0EE0FFF1FBB1F77
S11310A0661F771F881F91505040A9F79E3F510536
S11310B080F00C94AD070C94F8075F3FE4F3983E7E
S11310C0D4F3869577956795B795F795E7959F5FE0
S11310D0C1F7FE2B880F911D9695879597F9089572
S11310E0052E97FB1EF400940E94870857FD07D035
S11310F00E948F0807FC03D04EF40C948708509587
S11311004095309521953F4F4F4F5F4F08959095EF
S11311108095709561957F4F8F4F9F4F0895A1E201
S11311201A2EAA1BBB1BFD010DC0AA1FBB1FEE1F5D
S1131130FF1FA217B307E407F50720F0A21BB30BA8
S1131140E40BF50B661F771F881F991F1A9469F724
S113115060957095809590959B01AC01BD01CF0180
S113116008954532510520F4423010F00C94BC0827
S1131170FB011082CB010895BB274A3031F4992337
S113118022F4BDE2909581959F4F0C94C808BB272B
S1131190FB015527AA27880F991FAA1FA41710F02F
S11311A0A41B83955051B9F7A05DAA3308F0A95D3B
S11311B0A193009779F7B111B1931192CB010C94DB
S11311C0E108DC01FC01672F71917723E1F7329785
S11311D004C07C916D9370836291AE17BF07C8F30E
S11311E00895A8E1B0E042E050E00C94FE080E94AB
S11311F00C09272F0C940D09DC01CB01FC01F99992
S1131200FECF06C0F2BDE1BDF89A319600B40D924E
S113121041505040B8F70895262FF999FECF1FBAD0
S113122092BD81BD20BD0FB6F894FA9AF99A0FBE0B
S10B123001960895F894FFCF24
S1131238020003000200010001012D002E00543AAF
S113124800483A004D6561737572656D656E747317
S113125820617265206265696E672074616B656ED2
S11312682031732061706172742E200D200A00549D
S11312786F2073706563696679207468652073707C
S11312886163696E67206F66206D65617375726549
S11312986D656E747320696E207365636F6E647315
S11312A82C20656E7465722074686520636F6D6D9B
S11312B8616E642053782C207768657265207820E5
S11312C869732064657369726564207365636F6EFE
S11312D864732E200D200A00546F207370656369AF
S11312E86679207768696368206D656173757265CE
S11312F86D656E7420746F20766965772C20656E31
S11313087465722074686520636F6D6D616E643AEC
S1131318200D200A005420666F722074656D706574
S11313287261747572652C200D200A004220666F64
S113133872206272696768746E6573732C200D205D
S11313480A004820666F722068756D69646974794B
S11313582C206F72200D200A004120666F722061D4
S11313686C6C206D6561737572656D656E74732E32
S1131378200D200A00546F20646973706C61792011
S113138874656D706572617475726520696E204646
S1131398616872656E686569742C20656E7465721F
S11313A82074686520636F6D6D616E6420462E201D
S11313B80D200A00546F20646973706C617920747D
S11313C8656D706572617475726520696E20436518
S11313D86C736975732C20656E7465722074686506
S11313E820636F6D6D616E6420432E200D200A000A
S11313F8546F2073746F7265206272696768746EC3
S113140865737320696E20454550524F4D2C2065F5
S11314186E7465722074686520636F6D6D616E64A7
S113142820572E200D200A00546F20726561642015
S11314386272696768746E6573732073746F72651A
S11314486420696E20454550524F4D2C20656E74BA
S113145865722074686520636F6D6D616E642044E5
S11314682E200D200A00546F2073746F7265207447
S1131478656D70657261747572652028696E2043A4
S11314882920696E20454550524F4D2C20656E74B5
S113149865722074686520636F6D6D616E64205198
S11314A82E200D200A00546F207265616420746533
S11314B86D70657261747572652028696E204329A0
S11314C82073746F72656420696E20454550524FCD
S11314D84D2C20656E7465722074686520636F6D89
S11314E86D616E6420472E200D200A00546F20730E
S11314F8746F72652068756D696469747920696EA2
S113150820454550524F4D2C20656E7465722074E9
S1131518686520636F6D6D616E64204A2E200D200E
S11315280A00546F20726561642068756D69646986
S113153874792073746F72656420696E2045455010
S1131548524F4D2C20656E74657220746865206353
S11315586F6D6D616E64204B2E200D200A00436868
S113156865636B73756D204572726F7200423A0041
S113157825000D200A2053746F7265642062726915
S11315886768746E6573732076616C7565203D2099
S1131598000D200A2053746F7265642074656D70A1
S11315A8657261747572652076616C7565203D207D
S11315B80043200D200A000D200A2053746F726521
S11315C8642068756D69646974792076616C7565E1
S10D15D8203D200025200D200A000C
S9030000FC
