S015000046696E616C2D50726F6A6563742E7372656321
S11300000C9434000C9451000C9451000C94510045
S11300100C9451000C9451000C9451000C94510018
S11300200C9451000C9451000C9451000C94510008
S11300300C9451000C9451000C9451000C945100F8
S11300400C9451000C9451000C94F5040C94510040
S11300500C9451000C9451000C9451000C945100D8
S11300600C9451000C94510011241FBECFEFD8E022
S1130070DEBFCDBF14E0A0E0B1E0ECE2F2E102C0EB
S113008005900D92AC3AB107D9F724E0ACEAB4E09C
S113009001C01D92A63CB207E1F70E94A9030C948B
S11300A014090C94000087B1837C87B98BB18860F4
S11300B08BB98BB18B7F8BB98BB180618BB985E0A8
S11300C0982F9A95F1F796B1969596959295907F7B
S11300D02BB12F7E2BB9282F2A95F1F72BB1206154
S11300E02BB9282F2A95F1F72BB12F7E2BB98A959E
S11300F0F1F799230CF38BB1877F8BB98BB18460B3
S11301008BB987B18C6387B908958BB180618BB942
S113011088EC90E00197F1F78BB18F7E8BB908954D
S1130120CF93DF93C82FD62F0E945300D1110DC057
S11301308BB18B7F8BB9C03811F0C13071F481E081
S1130140809309018093080108C08BB184608BB946
S1130150809109018F5F809309018BB1877F8BB9EF
S11301609C2F907F28B1892F90E095958795959540
S11301708795822B88B90E94850088B1837C88B9D1
S113018020E1C29FC001112428B199279595879534
S113019095958795822B88B90E94850088B1837CC8
S11301A088B9DF91CF910895CF93DF93C82FD62FCD
S11301B00E9453008FEF8C0F8E3F08F0C1E0C09374
S11301C00901D0930801D23041F028F0D43049F02D
S11301D030F0DF3F39F4C15005C0C15C03C0C15FDA
S11301E001C0C15B60E08C2F80680E949000DF91A9
S11301F0CF9108950F931F93CF93DF93EC0101E008
S113020011E019C0113190F0013029F462E081E06D
S11302100E94D40002E0023030F08881803229F458
S1130220219611E003C011E001C011E061E0899161
S11302300E9490001F5F88818111E4CFDF91CF91EC
S11302401F910F9108958F929F92AF92BF92DF9268
S1130250EF92FF920F931F93CF93DF93CDB7DEB747
S11302602A970FB6F894DEBF0FBECDBF4B015C01D9
S1130270142FFE0131968AE0DF011D928A95E9F779
S113028081149104A104B10411F000E001C001E063
S1130290A501940109C00F5FCA01B9012AE030E049
S11302A040E050E00E946A082115310541055105DE
S11302B091F7101B0AF410E0BB2064F4B094A094EE
S11302C090948094811C911CA11CB11C0F5FDD24AF
S11302D0D39401C0D12C100F22C01A30A8F4E12EFF
S11302E0F12CB1E0EB1AF108C501B4012AE030E0C9
S11302F040E050E00E946A08E1E0F0E0EC0FFD1FEE
S1130300EE0DFF1D605D6083C501B4012AE030E09D
S113031040E050E00E946A0849015A01115011114D
S1130320DCCFDD2011F08DE28983CE0101960E949D
S1130330FA002A960FB6F894DEBF0FBECDBFDF9148
S1130340CF911F910F91FF90EF90DF90BF90AF90EE
S11303509F908F900895FF920F931F93CF93DF93F5
S1130360F82E88EE93E005C0E0E9F1E03197F1F76B
S113037001970097C9F787B18C6387B988B1837CEB
S113038088B98AB184608AB98AB188608AB98AB125
S11303908C618AB98BB18F7E8BB98BB1877F8BB916
S11303A08BB18B7F8BB988B18C6088B90E94850032
S11303B088B1837C88B900E41CE9C8010197F1F78E
S11303C088B18C6088B90E94850088B1837C88B923
S11303D0C0EADFE0CE010197F1F788B18C6088B9FB
S11303E00E94850088B1837C88B9CE010197F1F71A
S11303F088B1886088B90E94850088B1837C88B9F7
S1130400CE010197F1F788B1886088B90E94850010
S113041088B1837C88B9CE010197F1F788B18062F5
S113042088B90E94850088B1837C88B9CE01019780
S1130430F1F788B1846088B90E94850088B1837C13
S113044088B980E29EE40197F1F788B1886188B9A0
S11304500E94850088B1837C88B9CE010197F1F7A9
S113046088B1806388B92197F1F788B1837C88B912
S11304700E94850088B1886088B90E94850088B18F
S1130480837C88B9C8010197F1F760E08F2D8C60F7
S11304900E94900060E081E00E94900060E080E8AB
S11304A00E949000DF91CF911F910F91FF900895CA
S11304B080E29EE405C0E0E9F1E03197F1F70197AD
S11304C00097C9F784B1816084B981E08093AC045A
S11304D008958EE091E00E94FA006091AF0470E00C
S11304E080E090E00E94480726E636E646EE5FE3A9
S11304F00E94FD0720E030E040E052E40E942D0617
S113050020E030E0A9010E942D060E94100742E07D
S11305100E94230161E08FED0E94900061E086E477
S11305200E94900008958EE091E00E94FA0060918C
S1130530AF0470E080E090E042E00E94230161E0BB
S11305408FED0E94900061E083E40E949000089582
S1130550F999FECFF8946091AF0470E082E090E0E6
S11305600E94F1087894089581E191E00E94FA00D4
S11305706091AD0470E080E090E042E00E942301CD
S113058061E085E20E9490000895F999FECFF89405
S11305906091AD0470E083E090E00E94F1087894EB
S11305A008958091AC04811102C00E94580284B164
S11305B0816084B985B18E7F85B988EC90E005C0EF
S11305C0E0E9F1E03197F1F701970097C9F784B1B9
S11305D08E7F84B98AEA8A95F1F7189955C088E420
S11305E091E00197F1F7189B51C088E491E00197DD
S11305F0F1F718994DC060E033C08F5F893038F44B
S113060095E39A95F1F701C080E0189BF6CF189B0B
S113061041C085ED8A95F1F7189B0CC047E050E086
S1130620421B510981E090E002C0880F991F4A954E
S1130630E2F7382B80E006C08F5F893028F495E319
S11306409A95F1F71899F8CF2F5F02C030E020E0B7
S11306502830D0F2E62FF0E0E355FB4F30836F5F94
S11306606530A0F380EF90E00197F1F7EDEAF4E054
S11306703081218192818381230F920F890F94818C
S1130680891751F08FEF089580E0089580E0089570
S113069080E0089580E0089581E00895EAE7F0E0BD
S11306A0808187608083ACE7B0E08C9180648C9318
S11306B08081806880838081806480830895ECE7F2
S11306C0F0E09081907F90839081892B8083EAE78A
S11306D0F0E080818064808380917A0086FDFCCF85
S11306E080917800909179009C01220F331F220F92
S11306F0331F820F931F08951092C50087E68093DD
S1130700C400E1ECF0E088E18083208181E090E0A6
S113071002C0880F991F2A95E2F786608093C20071
S1130720808180688083789408959091C00095FFBB
S1130730FCCF8093C6000895CF93DF93EC0103C0F0
S11307400E949503219688818111FACFDF91CF9180
S1130750089581E090E09093B6048093B50490935B
S1130760BF048093BE041092C5041092C40480E0B8
S11307700E94AB010E944E030E947C0384E191E03D
S11307800E949C038FE391E00E949C0388EA91E01D
S11307900E949C0385EE91E00E949C038CEF91E003
S11307A00E949C0382E192E00E949C0389E292E011
S11307B00E949C0385E492E00E949C0384E892E0FA
S11307C00E949C0380EC92E00E949C0388EF92E0DC
S11307D00E949C0386E393E00E949C0386E793E0D7
S11307E00E949C038CEB93E00E949C0382EF93E0B5
S11307F00E949C032091BE043091BF0488EE93E0D4
S1130800289FB001299F700D389F700D1124072E69
S1130810000C880B990B0E9448074B015C0120E0F7
S113082030E04AE755E40E94FD076B017C0120E0BB
S113083030E040E85FE30E949906882324F120E039
S11308403FEF4FE757E4C701B6010E94F8071816B7
S1130850ACF420E030E040E251E4C501B4010E9470
S1130860FD070E94170706C080E991E00197F1F7A0
S11308706150710961157105B9F70AC0C701B60164
S11308800E94170702C061E070E0CB010197F1F705
S11308900E94D1028093B2048F3F49F460E080E863
S11308A00E9490008EE294E00E94FA00A3CF80910F
S11308B0B5049091B604019709F041C060E080E866
S11308C00E9490008091C4049091C504019719F48A
S11308D00E94690202C00E94930261E088E00E94C3
S11308E0D4008DE394E00E94FA0080E00E945F034C
S11308F0BC0180E090E00E94460720E030ED4DE925
S113090055E40E949E0620E030E048EC52E40E9448
S1130910FD070E9417077093B8046093B70480E042
S113092090E043E00E94230180E494E00E94FA00F6
S113093062E081E00E94D4000E94B4025BCF809107
S1130940B3049091B404019781F460E080E80E94BC
S113095090008091C4049091C504019719F40E94F9
S1130960690248CF0E94930245CF8091C2049091BE
S1130970C304019761F560E080E80E9490008DE374
S113098094E00E94FA0080E00E945F03BC0180E0D2
S113099090E00E94460720E030ED4DE955E40E94C6
S11309A09E0620E030E048EC52E40E94FD070E94DD
S11309B017077093B8046093B70480E090E043E0B5
S11309C00E94230180E494E00E94FA0013CF8091F6
S11309D0C0049091C104019709F00CCF60E080E855
S11309E00E9490000E94B40205CF1F920F920FB68E
S11309F00F9211242F933F934F935F936F937F93A1
S1130A008F939F93AF93BF93CF93EF93FF93C09133
S1130A10C600C33551F4C091C6008C2F90E0C09736
S1130A209093BF048093BE0401C1C435B9F460E05F
S1130A3081E00E94900081E090E09093B404809360
S1130A40B3041092B6041092B5041092C304109229
S1130A50C2041092C1041092C004E8C0C234B9F4B4
S1130A6060E081E00E94900081E090E09093C304F4
S1130A708093C2041092B6041092B5041092B40488
S1130A801092B3041092C1041092C004CFC0C834B1
S1130A90B9F460E081E00E94900081E090E09093DE
S1130AA0C1048093C0041092B6041092B50410924D
S1130AB0C3041092C2041092B4041092B304B6C0DA
S1130AC0C134B9F460E081E00E94900081E090E0DC
S1130AD09093B6048093B5041092B4041092B304B6
S1130AE01092C3041092C2041092C1041092C00464
S1130AF09DC0C63439F481E090E09093C50480939E
S1130B00C40494C0C33429F41092C5041092C404DC
S1130B108DC0C73579F4F999FECFF8946091B70484
S1130B207091B80480910601909107010E94F10828
S1130B3078947CC0C43429F5F999FECFF894809157
S1130B400601909107010E94EB08909301018093A4
S1130B50000178944AE050E069EB74E08091000170
S1130B60909101010E94AB0882E494E00E949C03EE
S1130B7089EB94E00E949C0381E694E00E949C032C
S1130B8055C0C13519F40E94A80250C0C73429F5D4
S1130B90F999FECFF89480910401909105010E9487
S1130BA0EB08909301018093000178944AE050E0AF
S1130BB069EB74E080910001909101010E94AB08FF
S1130BC088E694E00E949C0389EB94E00E949C03D5
S1130BD088E894E00E949C0329C0CA3419F40E9456
S1130BE0C50224C0CB3411F5F89480910201909190
S1130BF003010E94EB089093010180930001789413
S1130C004AE050E069EB74E08091000190910101A9
S1130C100E94AB088FE894E00E949C0389EB94E067
S1130C200E949C0381E694E00E949C03E6ECF0E0C1
S1130C30C0838081FF91EF91CF91BF91AF919F913C
S1130C408F917F916F915F914F913F912F910F9071
S1130C500FBE0F901F9018955058BB27AA270E94CB
S1130C6044060C94BE070E94B00738F00E94B707F0
S1130C7020F039F49F3F19F426F40C94AD070EF4D8
S1130C80E095E7FB0C94A707E92F0E94CF0758F3E0
S1130C90BA17620773078407950720F079F4A6F55D
S1130CA00C94F1070EF4E0950B2EBA2FA02D0B0136
S1130CB0B90190010C01CA01A0011124FF27591B9D
S1130CC099F0593F50F4503E68F11A16F040A22FA3
S1130CD0232F342F4427585FF3CF46953795279514
S1130CE0A795F0405395C9F77EF41F16BA0B620B13
S1130CF0730B840BBAF09150A1F0FF0FBB1F661F5A
S1130D00771F881FC2F70EC0BA0F621F731F841F9C
S1130D1048F4879577956795B795F7959E3F08F0C2
S1130D20B0CF9395880F08F09927EE0F9795879584
S1130D3008950E94830708F481E008950E94B20692
S1130D400C94BE070E94B70758F00E94B00740F009
S1130D5029F45F3F29F00C94A70751110C94F20772
S1130D600C94AD070E94CF0768F39923B1F3552380
S1130D7091F3951B550BBB27AA27621773078407AA
S1130D8038F09F5F5F4F220F331F441FAA1FA9F340
S1130D9035D00E2E3AF0E0E832D091505040E6952E
S1130DA0001CCAF72BD0FE2F29D0660F771F881F8F
S1130DB0BB1F261737074807AB07B0E809F0BB0B82
S1130DC0802DBF01FF2793585F4F3AF09E3F510596
S1130DD078F00C94A7070C94F2075F3FE4F3983E75
S1130DE0D4F3869577956795B795F7959F5FC9F77F
S1130DF0880F911D9695879597F90895E1E0660F00
S1130E00771F881FBB1F621773078407BA0720F078
S1130E10621B730B840BBA0BEE1F88F7E0950895E1
S1130E200E9417076894B1110C94F20708950E9468
S1130E30D70788F09F5798F0B92F9927B751B0F08A
S1130E40E1F0660F771F881F991F1AF0BA95C9F74A
S1130E5014C0B13091F00E94F107B1E008950C94F0
S1130E60F107672F782F8827B85F39F0B93FCCF3A3
S1130E70869577956795B395D9F73EF490958095C7
S1130E80709561957F4F8F4F9F4F0895E89409C0E7
S1130E9097FB3EF490958095709561957F4F8F4FA9
S1130EA09F4F9923A9F0F92F96E9BB279395F695BF
S1130EB0879577956795B795F111F8CFFAF4BB0F3D
S1130EC011F460FF1BC06F5F7F4F8F4F9F4F16C0A1
S1130ED0882311F096E911C0772321F09EE8872F2B
S1130EE0762F05C0662371F096E8862F70E060E0E7
S1130EF02AF09A95660F771F881FDAF7880F969560
S1130F00879597F90895990F0008550FAA0BE0E803
S1130F10FEEF16161706E807F907C0F012161306B7
S1130F20E407F50798F0621B730B840B950B39F4F7
S1130F300A2661F0232B242B252B21F408950A265D
S1130F4009F4A140A6958FEF811D811D089597F99D
S1130F509F6780E870E060E008959FEF80EC08955B
S1130F6000240A9416161706180609060895002484
S1130F700A9412161306140605060895092E0394FE
S1130F80000C11F4882352F0BB0F40F4BF2B11F472
S1130F9060FF04C06F5F7F4F8F4F9F4F089557FDD1
S1130FA09058440F551F59F05F3F71F04795880FD3
S1130FB097FB991F61F09F3F79F08795089512166A
S1130FC013061406551FF2CF4695F1DF08C0161616
S1130FD017061806991FF1CF8695710561050894C7
S1130FE00895E894BB2766277727CB0197F90895DE
S1130FF00E94830708F48FEF08950E9410080C9450
S1131000BE070E94B00738F00E94B70720F095236E
S113101011F00C94A7070C94AD0711240C94F2075B
S11310200E94CF0770F3959FC1F3950F50E0551FB1
S1131030629FF001729FBB27F00DB11D639FAA2729
S1131040F00DB11DAA1F649F6627B00DA11D661F78
S1131050829F2227B00DA11D621F739FB00DA11D99
S1131060621F839FA00D611D221F749F3327A00D53
S1131070611D231F849F600D211D822F762F6A2FEF
S113108011249F5750409AF0F1F088234AF0EE0F54
S1131090FF1FBB1F661F771F881F91505040A9F781
S11310A09E3F510580F00C94A7070C94F2075F3F14
S11310B0E4F3983ED4F3869577956795B795F795BD
S11310C0E7959F5FC1F7FE2B880F911D9695879535
S11310D097F90895052E97FB1EF400940E94810849
S11310E057FD07D00E94890807FC03D04EF40C94E6
S11310F0810850954095309521953F4F4F4F5F4F54
S1131100089590958095709561957F4F8F4F9F4F6F
S11311100895A1E21A2EAA1BBB1BFD010DC0AA1F34
S1131120BB1FEE1FFF1FA217B307E407F50720F04C
S1131130A21BB30BE40BF50B661F771F881F991FC7
S11311401A9469F760957095809590959B01AC0110
S1131150BD01CF0108954532510520F4423010F00D
S11311600C94B608FB011082CB010895BB274A30CA
S113117031F4992322F4BDE2909581959F4F0C940C
S1131180C208BB27FB015527AA27880F991FAA1F4E
S1131190A41710F0A41B83955051B9F7A05DAA338E
S11311A008F0A95DA193009779F7B111B193119259
S11311B0CB010C94DB08DC01FC01672F71917723D0
S11311C0E1F7329704C07C916D9370836291AE17FE
S11311D0BF07C8F30895A8E1B0E042E050E00C94E2
S11311E0F8080E940609272F0C940709DC01CB019B
S11311F0FC01F999FECF06C0F2BDE1BDF89A319623
S113120000B40D9241505040B8F70895262FF99933
S1131210FECF1FBA92BD81BD20BD0FB6F894FA9AD5
S10F1220F99A0FBE01960895F894FFCFD0
S113122C020003000200010001012D002E00543ABB
S113123C00483A004D6561737572656D656E747323
S113124C20617265206265696E672074616B656EDE
S113125C2031732061706172742E200D200A0054A9
S113126C6F20737065636966792074686520737088
S113127C6163696E67206F66206D65617375726555
S113128C6D656E747320696E207365636F6E647321
S113129C2C20656E7465722074686520636F6D6DA7
S11312AC616E642053782C207768657265207820F1
S11312BC69732064657369726564207365636F6E0A
S11312CC64732E200D200A00546F207370656369BB
S11312DC6679207768696368206D656173757265DA
S11312EC6D656E7420746F20766965772C20656E3D
S11312FC7465722074686520636F6D6D616E643AF9
S113130C200D200A005420666F722074656D706580
S113131C7261747572652C200D200A004220666F70
S113132C72206272696768746E6573732C200D2069
S113133C0A004820666F722068756D696469747957
S113134C2C206F72200D200A004120666F722061E0
S113135C6C6C206D6561737572656D656E74732E3E
S113136C200D200A00546F20646973706C6179201D
S113137C74656D706572617475726520696E204652
S113138C616872656E686569742C20656E7465722B
S113139C2074686520636F6D6D616E6420462E2029
S11313AC0D200A00546F20646973706C6179207489
S11313BC656D706572617475726520696E20436524
S11313CC6C736975732C20656E7465722074686512
S11313DC20636F6D6D616E6420432E200D200A0016
S11313EC546F2073746F7265206272696768746ECF
S11313FC65737320696E20454550524F4D2C206502
S113140C6E7465722074686520636F6D6D616E64B3
S113141C20572E200D200A00546F20726561642021
S113142C6272696768746E6573732073746F726526
S113143C6420696E20454550524F4D2C20656E74C6
S113144C65722074686520636F6D6D616E642044F1
S113145C2E200D200A00546F2073746F7265207453
S113146C656D70657261747572652028696E2043B0
S113147C2920696E20454550524F4D2C20656E74C1
S113148C65722074686520636F6D6D616E642051A4
S113149C2E200D200A00546F20726561642074653F
S11314AC6D70657261747572652028696E204329AC
S11314BC2073746F72656420696E20454550524FD9
S11314CC4D2C20656E7465722074686520636F6D95
S11314DC6D616E6420472E200D200A00546F20731A
S11314EC746F72652068756D696469747920696EAE
S11314FC20454550524F4D2C20656E7465722074F6
S113150C686520636F6D6D616E64204A2E200D201A
S113151C0A00546F20726561642068756D69646992
S113152C74792073746F72656420696E204545501C
S113153C524F4D2C20656E7465722074686520635F
S113154C6F6D6D616E64204B2E200D200A00436874
S113155C65636B73756D204572726F7200423A004D
S113156C25000D200A2053746F7265642062726921
S113157C6768746E6573732076616C7565203D20A5
S113158C002025200D200A000D200A2053746F72B0
S113159C65642074656D706572617475726520760E
S11315AC616C7565203D20002043200D200A000D40
S11315BC200A2053746F7265642068756D696469C0
S10F15CC74792076616C7565203D200068
S9030000FC
