S015000046696E616C2D50726F6A6563742E7372656321
S11300000C9434000C9451000C9451000C94510045
S11300100C9451000C9451000C9451000C94510018
S11300200C9451000C9451000C9451000C94510008
S11300300C9451000C9451000C9451000C945100F8
S11300400C9451000C9451000C9451000C945100E8
S11300500C9451000C9451000C9451000C945100D8
S11300600C9451000C94510011241FBECFEFD8E022
S1130070DEBFCDBF11E0A0E0B1E0EAEBF7E002C0E3
S113008005900D92A032B107D9F721E0A0E2B1E0CA
S113009001C01D92A832B207E1F70E9462030C94DA
S11300A0DB030C94000087B1837C87B98BB1826039
S11300B08BB98BB18E7F8BB98BB184608BB985E0A2
S11300C08A95F1F7000086B1869586958295807FA2
S11300D09BB19B7F9BB995E09A95F1F700009BB18A
S11300E094609BB995E09A95F1F700009BB19B7FD2
S11300F09BB995E09A95F1F700008823ECF28BB157
S11301008D7F8BB98BB181608BB987B18C6387B9D3
S113011008958BB184608BB987EC90E00197F1F777
S113012000C000008BB18B7F8BB90895CF93DF9310
S1130130C82FD62F0E945300D1110DC08BB18E7FD2
S11301408BB9C03811F0C13071F481E080930101A2
S11301508093000108C08BB181608BB9809101014B
S11301608F5F809301018BB18D7F8BB99C2F907F22
S113017028B1892F90E09595879595958795822B41
S113018088B90E94890088B1837C88B920E1C29F24
S1130190C001112428B19927959587959595879540
S11301A0822B88B90E94890088B1837C88B9DF9149
S11301B0CF910895CF93DF93C82FD62F0E94530079
S11301C08FEF8C0F8E3F08F0C1E0C0930101D093F4
S11301D00001D23041F028F0D43049F030F0DF3F54
S11301E039F4C15005C0C15C03C0C15F01C0C15B2B
S11301F060E08C2F80680E949600DF91CF91089573
S11302000F931F93CF93DF93EC0101E011E019C02A
S1130210113190F0013029F462E081E00E94DA00AB
S113022002E0023030F08881803229F4219611E016
S113023003C011E001C011E061E089910E949600C1
S11302401F5F88818111E4CFDF91CF911F910F91BE
S113025008958F929F92AF92BF92DF92EF92FF9296
S11302600F931F93CF93DF93CDB7DEB72A970FB6C3
S1130270F894DEBF0FBECDBF4B015C01142FFE010D
S113028031968AE0DF011D928A95E9F78114910481
S1130290A104B10411F000E001C001E0A501940142
S11302A009C00F5FCA01B9012AE030E040E050E024
S11302B00E949A03211531054105510591F7101B40
S11302C00AF410E0BB2064F4B094A0949094809459
S11302D0811C911CA11CB11C0F5FDD24D39401C0AF
S11302E0D12C100F22C01A30A8F4E12EF12CB1E069
S11302F0EB1AF108C501B4012AE030E040E050E017
S11303000E949A03E1E0F0E0EC0FFD1FEE0DFF1DEB
S1130310605D6083C501B4012AE030E040E050E054
S11303200E949A0349015A0111501111DCCFDD20BA
S113033011F08DE28983CE0101960E9400012A9674
S11303400FB6F894DEBF0FBECDBFDF91CF911F91E2
S11303500F91FF90EF90DF90BF90AF909F908F90A0
S11303600895CF93C82F2FEF81EE94E02150804061
S11303709040E1F700C0000087B18C6387B988B171
S1130380837C88B98AB181608AB98AB182608AB96A
S11303908AB187608AB98BB18B7F8BB98BB18D7F22
S11303A08BB98BB18E7F8BB988B18C6088B90E9470
S11303B0890088B1837C88B98FE39CE90197F1F7C0
S11303C000C0000088B18C6088B90E94890088B19F
S11303D0837C88B98FE99FE00197F1F700C00000A2
S11303E088B18C6088B90E94890088B1837C88B9FF
S11303F08FE99FE00197F1F700C0000088B18860A1
S113040088B90E94890088B1837C88B98FE99FE00C
S11304100197F1F700C0000088B1886088B90E9494
S1130420890088B1837C88B98FE99FE00197F1F74F
S113043000C0000088B1806288B90E94890088B138
S1130440837C88B98FE99FE00197F1F700C0000031
S113045088B1846088B90E94890088B1837C88B996
S11304608FE19EE40197F1F700C0000088B1886134
S113047088B90E94890088B1837C88B98FE99FE09C
S11304800197F1F700C0000088B1806388B98FE953
S11304909FE00197F1F700C0000088B1837C88B920
S11304A00E94890088B1886088B90E94890088B157
S11304B0837C88B98FE39CE90197F1F700C00000C1
S11304C060E08C2F8C600E94960060E081E00E94C6
S11304D0960060E080E80E949600CF9108952FEF87
S11304E087EA91E6215080409040E1F700C0000087
S11304F084B1816084B981E080932001089586E00D
S113050091E00E9400016091230170E080E090E09E
S113051042E00E94290161E08FED0E94960061E0B3
S113052083E40E949600089589E091E00E9400010E
S11305306091210170E080E090E042E00E94290196
S113054061E085E20E949600089580912001811166
S113055002C00E946F0284B1816084B985B18E7F2C
S113056085B92FEF89EF90E0215080409040E1F76A
S113057000C0000084B18E7F84B92AEA2A95F1F77D
S113058000C0189967C087E491E00197F1F700C0B3
S11305900000189B61C087E491E00197F1F700C067
S11305A0000018995BC070E036C08F5F893040F45A
S11305B025E32A95F1F7000001C080E0189BF5CFF0
S11305C0189B4EC085ED8A95F1F70000189B0CC06E
S11305D047E050E0491B510921E030E002C0220FFE
S11305E0331F4A95E2F7622B80E007C08F5F8930A2
S11305F030F425E32A95F1F700001899F7CF9F5FAF
S113060002C060E090E09830C0F2E72FF0E0EF5DC8
S1130610FE4F60837F5F7530A0F38FEE90E001970B
S1130620F1F700C00000E1E2F1E030818181228134
S11306309381830F820F890F9481891313C09FEFD5
S113064023ED80E3915020408040E1F700C000009A
S113065081E0089580E0089580E0089580E00895A1
S113066080E008958FEF0895EAE7F0E080818760E5
S11306708083ACE7B0E08C9180648C938081806847
S113068080838081806480830895ECE7F0E090812A
S1130690907F90839081892B8083EAE7F0E08081CA
S11306A08064808380917A0086FDFCCF80917800FD
S11306B0909179009C01220F331F220F331F820F68
S11306C0931F089580E00E94B1010E9434030E94A8
S11306D0A5028F3F49F460E080E80E9496008CE018
S11306E091E00E940001F3CF60E080E80E94960050
S11306F00E947F0261E088E00E94DA008BE191E0D1
S11307000E94000185E00E94450390932701809395
S11307102601BC0180E090E043E00E9429018EE1C3
S113072091E00E94000162E081E00E94DA000E94F0
S11307309402CDCF052E97FB1EF400940E94B103C2
S113074057FD07D00E94B90307FC03D04EF40C9464
S1130750B10350954095309521953F4F4F4F5F4FD2
S1130760089590958095709561957F4F8F4F9F4F19
S11307700895A1E21A2EAA1BBB1BFD010DC0AA1FDE
S1130780BB1FEE1FFF1FA217B307E407F50720F0F6
S1130790A21BB30BE40BF50B661F771F881F991F71
S11307A01A9469F760957095809590959B01AC01BA
S10D07B0BD01CF010895F894FFCFB6
S11307BA01012D002E00543A00483A00436865634B
S11307CA6B73756D204572726F7200423A00250090
S9030000FC
