S015000046696E616C2D50726F6A6563742E7372656321
S11300000C9434000C9451000C9451000C94510045
S11300100C9451000C9451000C9451000C94510018
S11300200C9451000C9451000C9451000C94510008
S11300300C9451000C9451000C9451000C945100F8
S11300400C9451000C9451000C945D030C945100D9
S11300500C9451000C9451000C9451000C945100D8
S11300600C9451000C94510011241FBECFEFD8E022
S1130070DEBFCDBF12E0A0E0B1E0E6E6FEE002C0E4
S113008005900D92AE3CB107D9F722E0AEECB2E098
S113009001C01D92A33EB207E1F70E941B040C9419
S11300A031070C94000087B1837C87B98BB18860D9
S11300B08BB98BB18B7F8BB98BB180618BB985E0A8
S11300C0982F9A95F1F796B1969596959295907F7B
S11300D02BB12F7E2BB9282F2A95F1F72BB1206154
S11300E02BB9282F2A95F1F72BB12F7E2BB98A959E
S11300F0F1F799230CF38BB1877F8BB98BB18460B3
S11301008BB987B18C6387B908958BB180618BB942
S113011088EC90E00197F1F78BB18F7E8BB908954D
S1130120CF93DF93C82FD62F0E945300D1110DC057
S11301308BB18B7F8BB9C03811F0C13071F481E081
S1130140809303018093020108C08BB184608BB952
S1130150809103018F5F809303018BB1877F8BB9FB
S11301609C2F907F28B1892F90E095958795959540
S11301708795822B88B90E94850088B1837C88B9D1
S113018020E1C29FC001112428B199279595879534
S113019095958795822B88B90E94850088B1837CC8
S11301A088B9DF91CF910895CF93DF93C82FD62FCD
S11301B00E9453008FEF8C0F8E3F08F0C1E0C09374
S11301C00301D0930201D23041F028F0D43049F039
S11301D030F0DF3F39F4C15005C0C15C03C0C15FDA
S11301E001C0C15B60E08C2F80680E949000DF91A9
S11301F0CF9108950F931F93CF93DF93EC0101E008
S113020011E019C0113190F0013029F462E081E06D
S11302100E94D40002E0023030F08881803229F458
S1130220219611E003C011E001C011E061E0899161
S11302300E9490001F5F88818111E4CFDF91CF91EC
S11302401F910F9108958F929F92AF92BF92DF9268
S1130250EF92FF920F931F93CF93DF93CDB7DEB747
S11302602A970FB6F894DEBF0FBECDBF4B015C01D9
S1130270142FFE0131968AE0DF011D928A95E9F779
S113028081149104A104B10411F000E001C001E063
S1130290A501940109C00F5FCA01B9012AE030E049
S11302A040E050E00E94F00621153105410551055A
S11302B091F7101B0AF410E0BB2064F4B094A094EE
S11302C090948094811C911CA11CB11C0F5FDD24AF
S11302D0D39401C0D12C100F22C01A30A8F4E12EFF
S11302E0F12CB1E0EB1AF108C501B4012AE030E0C9
S11302F040E050E00E94F006E1E0F0E0EC0FFD1F6A
S1130300EE0DFF1D605D6083C501B4012AE030E09D
S113031040E050E00E94F00649015A0111501111C9
S1130320DCCFDD2011F08DE28983CE0101960E949D
S1130330FA002A960FB6F894DEBF0FBECDBFDF9148
S1130340CF911F910F91FF90EF90DF90BF90AF90EE
S11303509F908F900895FF920F931F93CF93DF93F5
S1130360F82E88EE93E005C0E0E9F1E03197F1F76B
S113037001970097C9F787B18C6387B988B1837CEB
S113038088B98AB184608AB98AB188608AB98AB125
S11303908C618AB98BB18F7E8BB98BB1877F8BB916
S11303A08BB18B7F8BB988B18C6088B90E94850032
S11303B088B1837C88B900E41CE9C8010197F1F78E
S11303C088B18C6088B90E94850088B1837C88B923
S11303D0C0EADFE0CE010197F1F788B18C6088B9FB
S11303E00E94850088B1837C88B9CE010197F1F71A
S11303F088B1886088B90E94850088B1837C88B9F7
S1130400CE010197F1F788B1886088B90E94850010
S113041088B1837C88B9CE010197F1F788B18062F5
S113042088B90E94850088B1837C88B9CE01019780
S1130430F1F788B1846088B90E94850088B1837C13
S113044088B980E29EE40197F1F788B1886188B9A0
S11304500E94850088B1837C88B9CE010197F1F7A9
S113046088B1806388B92197F1F788B1837C88B912
S11304700E94850088B1886088B90E94850088B18F
S1130480837C88B9C8010197F1F760E08F2D8C60F7
S11304900E94900060E081E00E94900060E080E8AB
S11304A00E949000DF91CF911F910F91FF900895CA
S11304B080E29EE405C0E0E9F1E03197F1F70197AD
S11304C00097C9F784B1816084B981E08093CE023A
S11304D0089588E091E00E94FA006091D10270E0F2
S11304E080E090E042E00E94230161E08FED0E94F1
S11304F0900061E083E40E94900008958BE091E015
S11305000E94FA006091CF0270E080E090E042E047
S11305100E94230161E085E20E9490000895809189
S1130520CE02811102C00E94580284B1816084B954
S113053085B18E7F85B988EC90E005C0E0E9F1E0F3
S11305403197F1F701970097C9F784B18E7F84B989
S11305508AEA8A95F1F718995FC088E491E00197D7
S1130560F1F7189B5BC088E491E00197F1F71899C3
S113057057C060E033C08F5F893038F495E39A95B3
S1130580F1F701C080E0189BF6CF189B4BC085EDB6
S11305908A95F1F7189B0CC047E050E0421B5109C3
S11305A081E090E002C0880F991F4A95E2F7382B4A
S11305B080E006C08F5F893028F495E39A95F1F7BF
S11305C01899F8CF2F5F02C030E020E02830D0F235
S11305D0E62FF0E0E153FD4F30836F5F6530A0F309
S11305E080EF90E00197F1F7EFECF2E030812181A8
S11305F092818381230F920F890F9481891314C0F0
S113060080E197E205C0E0E9F1E03197F1F7019765
S11306100097C9F781E0089580E0089580E0089587
S113062080E0089580E008958FEF0895EAE7F0E010
S1130630808187608083ACE7B0E08C9180648C9388
S11306408081806880838081806480830895ECE762
S1130650F0E09081907F90839081892B8083EAE7FA
S1130660F0E080818064808380917A0086FDFCCFF5
S113067080917800909179009C01220F331F220F02
S1130680331F820F931F08951092C50087E680934D
S1130690C400E1ECF0E088E18083208181E090E017
S11306A002C0880F991F2A95E2F786608093C200E2
S11306B0808180688083789408951F920F920FB68A
S11306C00F9211242F933F934F935F936F937F93D4
S11306D08F939F93AF93BF93EF93FF938091C60043
S11306E0833549F48091C60090E0C097909301014E
S11306F08093000179C08435B9F460E081E00E9400
S1130700900081E090E09093D6028093D5021092FD
S1130710D8021092D7021092E0021092DF021092D7
S1130720DE021092DD0260C08234B9F460E081E040
S11307300E94900081E090E09093E0028093DF02B9
S11307401092D8021092D7021092D6021092D502BB
S11307501092DE021092DD0247C08834B9F460E0E2
S113076081E00E94900081E090E09093DE0280930B
S1130770DD021092D8021092D7021092E002109279
S1130780DF021092D6021092D5022EC08134B9F441
S113079060E081E00E94900081E090E09093D802B4
S11307A08093D7021092D6021092D5021092E002E2
S11307B01092DF021092DE021092DD0215C0863420
S11307C049F48091C60090E0C09790930101809312
S11307D000010AC0833441F48091C60090E0C097C0
S11307E090930101809300018091C600FF91EF91E5
S11307F0BF91AF919F918F917F916F915F914F9135
S11308003F912F910F900FBE0F901F9018959091CC
S1130810C00095FFFCCF8093C6000895CF93DF936B
S1130820EC0103C00E940704219688818111FACF4C
S1130830DF91CF91089581E090E09093D802809366
S1130840D70280E00E94AB010E9416030E94440379
S11308508EE091E00E940E0489E391E00E940E0470
S113086082EA91E00E940E048FED91E00E940E0452
S113087086EF91E00E940E048CE092E00E940E0448
S113088083E292E00E940E048FE392E00E940E0441
S11308908EE792E00E940E04209100013091010144
S11308A080E09AEC289FB001299F700D389F700D4D
S11308B011247093DC026093DB02072E000C880B7A
S11308C0990B0E94CE054B015C0120E030E04AE721
S11308D055E40E9483066B017C0120E030E040E88F
S11308E05FE30E942605882324F120E03FEF4FE7D1
S11308F057E4C701B6010E947E061816ACF420E046
S113090030E040E251E4C501B4010E9483060E9434
S11309109D0506C080E991E00197F1F761507109E6
S113092061157105B9F70AC0C701B6010E949D059A
S113093002C061E070E0CB010197F1F70E948F02E1
S11309408093D4028F3F49F460E080E80E949000D5
S11309508AEB92E00E94FA009FCF8091D702909197
S1130960D802019731F560E080E80E9490000E946F
S1130970690261E088E00E94D40089EC92E00E9460
S1130980FA0085E00E9427039093DA028093D9024B
S1130990BC0180E090E043E00E9423018CEC92E0F3
S11309A00E94FA0062E081E00E94D4000E947E026C
S11309B073CF8091D5029091D602019739F460E00B
S11309C080E80E9490000E94690266CF8091DF0255
S11309D09091E002019761F560E080E80E94900048
S11309E089EC92E00E94FA0080E00E942703BC0197
S11309F080E090E00E94CC0520E030ED4DE955E424
S1130A000E942B0520E030E048EC52E40E9483066B
S1130A100E949D057093DA026093D90280E090E011
S1130A2043E00E9423018CEC92E00E94FA0034CF50
S1130A308091DD029091DE02019709F02DCF60E0F4
S1130A4080E80E9490000E947E0226CF0E94090640
S1130A5008F481E008950E943F050C9444060E9426
S1130A603D0658F00E94360640F029F45F3F29F015
S1130A700C942D0651110C9478060C9433060E94A4
S1130A80550668F39923B1F3552391F3951B550B40
S1130A90BB27AA2762177307840738F09F5F5F4F4D
S1130AA0220F331F441FAA1FA9F335D00E2E3AF08C
S1130AB0E0E832D091505040E695001CCAF72BD0A4
S1130AC0FE2F29D0660F771F881FBB1F26173707F5
S1130AD04807AB07B0E809F0BB0B802DBF01FF2727
S1130AE093585F4F3AF09E3F510578F00C942D06D1
S1130AF00C9478065F3FE4F3983ED4F3869577959B
S1130B006795B795F7959F5FC9F7880F911D9695DF
S1130B10879597F90895E1E0660F771F881FBB1F3B
S1130B20621773078407BA0720F0621B730B840BE8
S1130B30BA0BEE1F88F7E09508950E945D0688F0D1
S1130B409F5798F0B92F9927B751B0F0E1F0660F8D
S1130B50771F881F991F1AF0BA95C9F714C0B130CE
S1130B6091F00E947706B1E008950C947706672F00
S1130B70782F8827B85F39F0B93FCCF386957795FD
S1130B806795B395D9F73EF49095809570956195E6
S1130B907F4F8F4F9F4F0895E89409C097FB3EF411
S1130BA090958095709561957F4F8F4F9F4F9923B6
S1130BB0A9F0F92F96E9BB279395F6958795779534
S1130BC06795B795F111F8CFFAF4BB0F11F460FFF4
S1130BD01BC06F5F7F4F8F4F9F4F16C0882311F04C
S1130BE096E911C0772321F09EE8872F762F05C060
S1130BF0662371F096E8862F70E060E02AF09A95FB
S1130C00660F771F881FDAF7880F9695879597F9EF
S1130C100895990F0008550FAA0BE0E8FEEF161689
S1130C201706E807F907C0F012161306E407F507DC
S1130C3098F0621B730B840B950B39F40A2661F050
S1130C40232B242B252B21F408950A2609F4A140F3
S1130C50A6958FEF811D811D089597F99F6780E800
S1130C6070E060E008959FEF80EC089500240A94FA
S1130C701616170618060906089500240A94121673
S1130C801306140605060895092E0394000C11F4A6
S1130C90882352F0BB0F40F4BF2B11F460FF04C053
S1130CA06F5F7F4F8F4F9F4F089557FD9058440FAC
S1130CB0551F59F05F3F71F04795880F97FB991FB7
S1130CC061F09F3F79F08795089512161306140674
S1130CD0551FF2CF4695F1DF08C016161706180601
S1130CE0991FF1CF86957105610508940895E894DC
S1130CF0BB2766277727CB0197F908950E94090639
S1130D0008F48FEF08950E9496060C9444060E94FE
S1130D10360638F00E943D0620F0952311F00C941D
S1130D202D060C94330611240C9478060E94550663
S1130D3070F3959FC1F3950F50E0551F629FF0012A
S1130D40729FBB27F00DB11D639FAA27F00DB11D43
S1130D50AA1F649F6627B00DA11D661F829F2227CC
S1130D60B00DA11D621F739FB00DA11D621F839F53
S1130D70A00D611D221F749F3327A00D611D231F29
S1130D80849F600D211D822F762F6A2F11249F5777
S1130D9050409AF0F1F088234AF0EE0FFF1FBB1F7A
S1130DA0661F771F881F91505040A9F79E3F510539
S1130DB080F00C942D060C9478065F3FE4F3983E83
S1130DC0D4F3869577956795B795F795E7959F5FE3
S1130DD0C1F7FE2B880F911D9695879597F9089575
S1130DE0052E97FB1EF400940E94070757FD07D0B9
S1130DF00E940F0707FC03D04EF40C94070750958C
S1130E004095309521953F4F4F4F5F4F08959095F2
S1130E108095709561957F4F8F4F9F4F0895A1E204
S1130E201A2EAA1BBB1BFD010DC0AA1FBB1FEE1F60
S1130E30FF1FA217B307E407F50720F0A21BB30BAB
S1130E40E40BF50B661F771F881F991F1A9469F727
S1130E5060957095809590959B01AC01BD01CF0183
S1090E600895F894FFCF91
S1130E66010001012D002E00543A00483A004D6558
S1130E7661737572656D656E747320617265206247
S1130E8665696E672074616B656E203173206170CD
S1130E966172742E200D200A00546F2073706563EE
S1130EA6696679207468652073706163696E67206A
S1130EB66F66206D6561737572656D656E747320FA
S1130EC6696E207365636F6E64732C20656E74653A
S1130ED6722074686520636F6D6D616E642053784B
S1130EE62C207768657265207820697320646573A1
S1130EF669726564207365636F6E64732E200D20BA
S1130F060A00546F2073706563696679207768698F
S1130F166368206D6561737572656D656E742074A2
S1130F266F20766965772C20656E74657220746807
S1130F366520636F6D6D616E643A200D200A00545E
S1130F4620666F722074656D706572617475726562
S1130F562C200D200A004220666F72206272696797
S1130F6668746E6573732C200D200A004820666F22
S1130F76722068756D69646974792C206F72200D0E
S1130F86200A004120666F7220616C6C206D6561D9
S1130F96737572656D656E74732E200D200A005488
S1130FA66F20646973706C61792074656D70657205
S1130FB6617475726520696E2046616872656E6833
S1130FC66569742C20656E74657220746865206387
S1130FD66F6D6D616E6420462E200D200A00546FDD
S1130FE620646973706C61792074656D70657261D3
S1130FF67475726520696E2043656C736975732C0C
S113100620656E7465722074686520636F6D6D610A
S11310166E6420432E200D200A00436865636B73BB
S1111026756D204572726F7200423A0025000B
S9030000FC
