S015000046696E616C2D50726F6A6563742E7372656321
S11300000C9434000C9451000C9451000C94510045
S11300100C9451000C9451000C9451000C94510018
S11300200C9451000C9451000C9451000C94510008
S11300300C9451000C9451000C9451000C945100F8
S11300400C9451000C9451000C9487030C945100AF
S11300500C9451000C9451000C9451000C945100D8
S11300600C9451000C94510011241FBECFEFD8E022
S1130070DEBFCDBF12E0A0E0B1E0E8EFFEE002C0D9
S113008005900D92AC3CB107D9F722E0ACECB2E09C
S113009001C01D92A33EB207E1F70E943F040C94F5
S11300A07A070C94000087B1837C87B98BB1886090
S11300B08BB98BB18B7F8BB98BB180618BB985E0A8
S11300C0982F9A95F1F796B1969596959295907F7B
S11300D02BB12F7E2BB9282F2A95F1F72BB1206154
S11300E02BB9282F2A95F1F72BB12F7E2BB98A959E
S11300F0F1F799230CF38BB1877F8BB98BB18460B3
S11301008BB987B18C6387B908958BB180618BB942
S113011088EC90E00197F1F78BB18F7E8BB908954D
S1130120CF93DF93C82FD62F0E945300D1110DC057
S11301308BB18B7F8BB9C03811F0C13071F481E081
S1130140809301018093000108C08BB184608BB956
S1130150809101018F5F809301018BB1877F8BB9FF
S11301609C2F907F28B1892F90E095958795959540
S11301708795822B88B90E94850088B1837C88B9D1
S113018020E1C29FC001112428B199279595879534
S113019095958795822B88B90E94850088B1837CC8
S11301A088B9DF91CF910895CF93DF93C82FD62FCD
S11301B00E9453008FEF8C0F8E3F08F0C1E0C09374
S11301C00101D0930001D23041F028F0D43049F03D
S11301D030F0DF3F39F4C15005C0C15C03C0C15FDA
S11301E001C0C15B60E08C2F80680E949000DF91A9
S11301F0CF9108950F931F93CF93DF93EC0101E008
S113020011E019C0113190F0013029F462E081E06D
S11302100E94D40002E0023030F08881803229F458
S1130220219611E003C011E001C011E061E0899161
S11302300E9490001F5F88818111E4CFDF91CF91EC
S11302401F910F9108958F929F92AF92BF92DF9268
S1130250EF92FF920F931F93CF93DF93CDB7DEB747
S11302602A970FB6F894DEBF0FBECDBF4B015C01D9
S1130270142FFE0131968AE0DF011D928A95E9F779
S113028081149104A104B10411F000E001C001E063
S1130290A501940109C00F5FCA01B9012AE030E049
S11302A040E050E00E943907211531054105510510
S11302B091F7101B0AF410E0BB2064F4B094A094EE
S11302C090948094811C911CA11CB11C0F5FDD24AF
S11302D0D39401C0D12C100F22C01A30A8F4E12EFF
S11302E0F12CB1E0EB1AF108C501B4012AE030E0C9
S11302F040E050E00E943907E1E0F0E0EC0FFD1F20
S1130300EE0DFF1D605D6083C501B4012AE030E09D
S113031040E050E00E94390749015A01115011117F
S1130320DCCFDD2011F08DE28983CE0101960E949D
S1130330FA002A960FB6F894DEBF0FBECDBFDF9148
S1130340CF911F910F91FF90EF90DF90BF90AF90EE
S11303509F908F900895FF920F931F93CF93DF93F5
S1130360F82E88EE93E005C0E0E9F1E03197F1F76B
S113037001970097C9F787B18C6387B988B1837CEB
S113038088B98AB184608AB98AB188608AB98AB125
S11303908C618AB98BB18F7E8BB98BB1877F8BB916
S11303A08BB18B7F8BB988B18C6088B90E94850032
S11303B088B1837C88B900E41CE9C8010197F1F78E
S11303C088B18C6088B90E94850088B1837C88B923
S11303D0C0EADFE0CE010197F1F788B18C6088B9FB
S11303E00E94850088B1837C88B9CE010197F1F71A
S11303F088B1886088B90E94850088B1837C88B9F7
S1130400CE010197F1F788B1886088B90E94850010
S113041088B1837C88B9CE010197F1F788B18062F5
S113042088B90E94850088B1837C88B9CE01019780
S1130430F1F788B1846088B90E94850088B1837C13
S113044088B980E29EE40197F1F788B1886188B9A0
S11304500E94850088B1837C88B9CE010197F1F7A9
S113046088B1806388B92197F1F788B1837C88B912
S11304700E94850088B1886088B90E94850088B18F
S1130480837C88B9C8010197F1F760E08F2D8C60F7
S11304900E94900060E081E00E94900060E080E8AB
S11304A00E949000DF91CF911F910F91FF900895CA
S11304B080E29EE405C0E0E9F1E03197F1F70197AD
S11304C00097C9F784B1816084B981E08093CC023C
S11304D0089586E091E00E94FA006091CF0270E0F6
S11304E080E090E00E94400626E636E646EE5FE3B2
S11304F00E94CC0620E030E040E052E40E942A054D
S113050020E030E0A9010E942A050E94080642E08A
S11305100E94230161E08FED0E94900061E086E477
S11305200E949000089586E091E00E94FA00609194
S1130530CF0270E080E090E042E00E94230161E09D
S11305408FED0E94900061E083E40E949000089582
S113055089E091E00E94FA006091CD0270E080E0B1
S113056090E042E00E94230161E085E20E94900055
S113057008958091CC02811102C00E94580284B176
S1130580816084B985B18E7F85B988EC90E005C01F
S1130590E0E9F1E03197F1F701970097C9F784B1E9
S11305A08E7F84B98AEA8A95F1F718995FC088E446
S11305B091E00197F1F7189B5BC088E491E0019703
S11305C0F1F7189957C060E033C08F5F893038F471
S11305D095E39A95F1F701C080E0189BF6CF189B3C
S11305E04BC085ED8A95F1F7189B0CC047E050E0AD
S11305F0421B510981E090E002C0880F991F4A957F
S1130600E2F7382B80E006C08F5F893028F495E349
S11306109A95F1F71899F8CF2F5F02C030E020E0E7
S11306202830D0F2E62FF0E0E353FD4F30836F5FC4
S11306306530A0F380EF90E00197F1F7EDECF2E084
S11306403081218192818381230F920F890F9481BC
S1130650891314C080E197E205C0E0E9F1E0319725
S1130660F1F701970097C9F781E0089580E00895B4
S113067080E0089580E0089580E008958FEF089564
S1130680EAE7F0E0808187608083ACE7B0E08C919A
S113069080648C938081806880838081806480837F
S11306A00895ECE7F0E09081907F90839081892B0E
S11306B08083EAE7F0E080818064808380917A001F
S11306C086FDFCCF80917800909179009C01220FE7
S11306D0331F220F331F820F931F08951092C500FA
S11306E087E68093C400E1ECF0E088E18083208118
S11306F081E090E002C0880F991F2A95E2F7866096
S11307008093C200808180688083789408951F92CA
S11307100F920FB60F9211242F933F934F935F9331
S11307206F937F938F939F93AF93BF93EF93FF93B5
S11307308091C600833549F48091C60090E0C0974B
S11307409093DC028093DB0273C08435B9F460E0DB
S113075081E00E94900081E090E09093D402809325
S1130760D3021092D6021092D5021092E002109297
S1130770DF021092DE021092DD025AC08234B9F414
S113078060E081E00E94900081E090E09093E002BC
S11307908093DF021092D6021092D5021092D402F6
S11307A01092D3021092DE021092DD0241C088340E
S11307B0B9F460E081E00E94900081E090E09093C1
S11307C0DE028093DD021092D6021092D5021092BE
S11307D0E0021092DF021092D4021092D30228C0D9
S11307E08134B9F460E081E00E94900081E090E0FF
S11307F09093D6028093D5021092D4021092D30221
S11308001092E0021092DF021092DE021092DD02DA
S11308100FC0863439F481E090E09093E202809333
S1130820E10206C0833421F41092E2021092E10244
S11308308091C600FF91EF91BF91AF919F918F91ED
S11308407F916F915F914F913F912F910F900FBEC8
S11308500F901F9018959091C00095FFFCCF809346
S1130860C6000895CF93DF93EC0103C00E942B04CC
S1130870219688818111FACFDF91CF91089581E08B
S113088090E09093D6028093D50280E00E94AB0161
S11308900E9440030E946E038CE091E00E943204A7
S11308A087E391E00E94320480EA91E00E943204DE
S11308B08DED91E00E94320484EF91E00E943204B5
S11308C08AE092E00E94320481E292E00E943204C3
S11308D08DE392E00E9432048CE792E00E9432049D
S11308E01092DC021092DB021092DA021092D9020A
S11308F081E090E00197F1F70E94B9028093D2025F
S11309008F3F49F460E080E80E94900088EB92E019
S11309100E94FA00E5CF8091D5029091D60201970A
S113092009F041C060E080E80E9490008091E102FB
S11309309091E202019719F40E94690202C00E9498
S1130940930261E088E00E94D40087EC92E00E9468
S1130950FA0080E00E945103BC0180E090E00E9414
S11309603E0620E030E04AEF54E40E94960520E081
S113097030E048EC52E40E94CC060E940F067093CB
S1130980D8026093D70280E090E043E00E94230104
S11309908AEC92E00E94FA0062E081E00E94D400B6
S11309A00E94A8029DCF8091D3029091D402019716
S11309B081F460E080E80E9490008091E1029091CF
S11309C0E202019719F40E9469028ACF0E949302FD
S11309D087CF8091DF029091E002019761F560E09A
S11309E080E80E94900087EC92E00E94FA0080E088
S11309F00E945103BC0180E090E00E943E0620E08A
S1130A0030ED4DE955E40E94960520E030E048ECD5
S1130A1052E40E94CC060E940F067093D8026093A1
S1130A20D70280E090E043E00E9423018AEC92E048
S1130A300E94FA0055CF8091DD029091DE02019769
S1130A4009F04ECF60E080E80E9490000E94A80266
S1130A5047CF5058BB27AA270E9441050C94920601
S1130A600E94840638F00E948B0620F039F49F3FE0
S1130A7019F426F40C9481060EF4E095E7FB0C942B
S1130A807B06E92F0E94A30658F3BA17620773077F
S1130A908407950720F079F4A6F50C94C5060EF4A6
S1130AA0E0950B2EBA2FA02D0B01B90190010C017A
S1130AB0CA01A0011124FF27591B99F0593F50F492
S1130AC0503E68F11A16F040A22F232F342F4427EA
S1130AD0585FF3CF469537952795A795F0405395E2
S1130AE0C9F77EF41F16BA0B620B730B840BBAF0B2
S1130AF09150A1F0FF0FBB1F661F771F881FC2F71D
S1130B000EC0BA0F621F731F841F48F48795779530
S1130B106795B795F7959E3F08F0B0CF9395880FEA
S1130B2008F09927EE0F9795879508950E94AA05D6
S1130B300C9492060E948B0658F00E94840640F0A2
S1130B4029F45F3F29F00C947B0651110C94C606DE
S1130B500C9481060E94A30668F39923B1F35523EC
S1130B6091F3951B550BBB27AA27621773078407BC
S1130B7038F09F5F5F4F220F331F441FAA1FA9F352
S1130B8035D00E2E3AF0E0E832D091505040E69540
S1130B90001CCAF72BD0FE2F29D0660F771F881FA1
S1130BA0BB1F261737074807AB07B0E809F0BB0B94
S1130BB0802DBF01FF2793585F4F3AF09E3F5105A8
S1130BC078F00C947B060C94C6065F3FE4F3983EE1
S1130BD0D4F3869577956795B795F7959F5FC9F791
S1130BE0880F911D9695879597F90895E1E0660F12
S1130BF0771F881FBB1F621773078407BA0720F08B
S1130C00621B730B840BBA0BEE1F88F7E0950895F3
S1130C100E940F066894B1110C94C60608950E94B0
S1130C20AB0688F09F5798F0B92F9927B751B0F0C9
S1130C30E1F0660F771F881F991F1AF0BA95C9F75C
S1130C4014C0B13091F00E94C506B1E008950C942F
S1130C50C506672F782F8827B85F39F0B93FCCF3E2
S1130C60869577956795B395D9F73EF490958095D9
S1130C70709561957F4F8F4F9F4F0895E89409C0F9
S1130C8097FB3EF490958095709561957F4F8F4FBB
S1130C909F4F9923A9F0F92F96E9BB279395F695D1
S1130CA0879577956795B795F111F8CFFAF4BB0F4F
S1130CB011F460FF1BC06F5F7F4F8F4F9F4F16C0B3
S1130CC0882311F096E911C0772321F09EE8872F3D
S1130CD0762F05C0662371F096E8862F70E060E0F9
S1130CE02AF09A95660F771F881FDAF7880F969572
S1130CF0879597F9089597F99F6780E870E060E019
S1130D0008959FEF80EC089500240A9416161706A0
S1130D1018060906089500240A94121613061406E8
S1130D2005060895092E0394000C11F4882352F04B
S1130D30BB0F40F4BF2B11F460FF04C06F5F7F4F03
S1130D408F4F9F4F089557FD9058440F551F59F0EA
S1130D505F3F71F04795880F97FB991F61F09F3FA4
S1130D6079F087950895121613061406551FF2CFCD
S1130D704695F1DF08C0161617061806991FF1CF1D
S1130D8086957105610508940895E894BB27662744
S1130D907727CB0197F908950E94DF060C949206F9
S1130DA00E94840638F00E948B0620F0952311F0EF
S1130DB00C947B060C94810611240C94C6060E94A4
S1130DC0A30670F3959FC1F3950F50E0551F629FE2
S1130DD0F001729FBB27F00DB11D639FAA27F00D90
S1130DE0B11DAA1F649F6627B00DA11D661F829FB7
S1130DF02227B00DA11D621F739FB00DA11D621F9C
S1130E00839FA00D611D221F749F3327A00D611DB8
S1130E10231F849F600D211D822F762F6A2F11249A
S1130E209F5750409AF0F1F088234AF0EE0FFF1FCD
S1130E30BB1F661F771F881F91505040A9F79E3F24
S1130E40510580F00C947B060C94C6065F3FE4F3D6
S1130E50983ED4F3869577956795B795F795E7957A
S1130E609F5FC1F7FE2B880F911D9695879597F983
S1130E700895052E97FB1EF400940E94500757FD19
S1130E8007D00E94580707FC03D04EF40C94500777
S1130E9050954095309521953F4F4F4F5F4F0895A2
S1130EA090958095709561957F4F8F4F9F4F0895D2
S1130EB0A1E21A2EAA1BBB1BFD010DC0AA1FBB1F5A
S1130EC0EE1FFF1FA217B307E407F50720F0A21BCC
S1130ED0B30BE40BF50B661F771F881F991F1A9439
S1130EE069F760957095809590959B01AC01BD0163
S10B0EF0CF010895F894FFCF2F
S1130EF801012D002E00543A00483A004D656173F3
S1130F087572656D656E74732061726520626569BA
S1130F186E672074616B656E203173206170617235
S1130F28742E200D200A00546F207370656369665F
S1130F3879207468652073706163696E67206F66D1
S1130F48206D6561737572656D656E747320696E65
S1130F58207365636F6E64732C20656E74657220EC
S1130F6874686520636F6D6D616E642053782C20FE
S1130F78776865726520782069732064657369727F
S1130F886564207365636F6E64732E200D200A00F8
S1130F98546F20737065636966792077686963683C
S1130FA8206D6561737572656D656E7420746F204C
S1130FB8766965772C20656E74657220746865207F
S1130FC8636F6D6D616E643A200D200A00542066CB
S1130FD86F722074656D70657261747572652C200A
S1130FE80D200A004220666F722062726967687475
S1130FF86E6573732C200D200A004820666F7220DA
S113100868756D69646974792C206F72200D200AE3
S1131018004120666F7220616C6C206D6561737588
S113102872656D656E74732E200D200A00546F204E
S1131038646973706C61792074656D70657261742C
S113104875726520696E2046616872656E686569A7
S1131058742C20656E7465722074686520636F6DE6
S11310686D616E6420462E200D200A00546F2064A2
S11310786973706C61792074656D706572617475DB
S1131088726520696E2043656C736975732C2065DD
S11310986E7465722074686520636F6D6D616E642B
S11310A820432E200D200A00436865636B73756D19
S10F10B8204572726F7200423A0025005D
S9030000FC
